:020000040000FA
:06000000EAEF03F012001C
:0600080004EF04F01200F9
:060018000CEF04F01200E1
:06002A000100EC070000DC
:08003000810000000200000045
:080038000001776B1E0E716ED2
:100040000401400E096F200E0A6F040E0B6F880E1C
:10005000086F0401200E0E6F040E0F6F400E0C6F20
:100060001200550EA76EAA0EA76EA68212000401FA
:10007000226B010E236F12000001756B5CD90AE23E
:1000800067D90800F5CF76F000014ED976C0EFFFB2
:10009000752BF4D7F86A1200F00E04012217840EB3
:1000A000A66E0001756B47D90AE24AD90F0E00010E
:1000B00075150F0801E1D5DF0001752BF4D712008B
:1000C000940EA66E0001756B36D911E27551006E63
:1000D000016A060ED89000360136E804FBE1026A98
:1000E00001BE026812D9BDDF0001752BEDD7F86A99
:1000F0001200A66A0001756B1ED90BE204012251A1
:1001000000017525A96EA6800FD9A8CFEFFF752B2A
:10011000F3D712000001756B0ED910E204012251D1
:1001200000017525A96E00D9EF50A86E040EA66EC9
:1001300098DFA6B2FED70001752BEED71200C40ED1
:10014000A66E0001756BF7D805E2FAD88ADF0001C8
:10015000752BF9D7F86A120097D8060E00017A5D60
:1001600003E36D50020B01E08ED00001770511E131
:1001700004010CBF0DD00401400E096F400E0401B4
:1001800008170401087D880E040108130001776B2D
:100190007AD0040108BF77D00001756B04012051AB
:1001A000320A45E0CD0A34E0F80A2DE0020A26E0E2
:1001B000010A1FE0070A18E0010A11E0030A0AE039
:1001C000070A08E0060A01E04DD051DF0001040EE5
:1001D000756F49D051DF050E0001752744D05CDFF3
:1001E0000001010E756F3FD06BDF0001010E756FCE
:1001F0003AD07FDF050E0001752735D08BDF000177
:10020000010E756F30D09BDF0001010E756F2BD092
:100210006D960001786B796B00017807000E795BB1
:1002200000017851791101E0F7D7FF001CD0030ECF
:100230000401215D09E104012251E8B08C84E8A0A9
:100240008C940001010E756F040E0401215D09E11B
:1002500004012251E8B08C86E8A08C960001010EC2
:10026000756F01D000D00001010E776F000175514C
:100270000AE075C00DF4400E04010C1704010C7D5A
:10028000880E04010C13120000018151821104E157
:10029000200E816F4E0E826F8107000E825B6DA271
:1002A00008D08151821130E18C708C50010B13E128
:1002B00028D000017A5102E18C9023D07A0502E126
:1002C0008C8009D0020E7A5D02E18C801AD0030E78
:1002D0007A5D03E18C908C821200050E7A5D06E156
:1002E00000018151821110E18C700BD0060E7A5DF5
:1002F0000BE100018151821107E18C708C50010BE0
:1003000002E08C9212008C8212000401225100241F
:10031000F36E23510120F46E24510220F86EF4CFC5
:10032000F7FFF3CFF6FF12007551EA6A250FE96E69
:10033000040EEA221200040121510001755D120031
:10034000F3DFEFCF03F004D803C0F5FF0C00120079
:0C03500075C000F0016A026A85EF01F040
:04035C006C5002E0FF
:10036000000E01D0010E00090BE0040100513C0B0E
:10037000E842E8420D0802E1C9EF01F0D2EF01F0D6
:100380006C5002E0000E01D0010E040901E019D802
:1003900012000001606B616B666B676B9DEC02F095
:1003A00054EF02F0020E0001605D09E15CD8040127
:1003B00000BD02D0C80E01D0880E006F12008DEF74
:1003C00002F0040E00017A5D09E112C46EFF6E5066
:1003D000000802E2050E01D0030E7A6F00016005ED
:1003E00009E10AD8040104BD02D0C80E01D0880E6C
:1003F000046F12008DEF02F00001080E665D000E22
:10040000675903E266C069F002D0080E696F69C0DF
:1004100005F46951006E016A0050665F0150675B28
:10042000180E646F040E656F69511CE000017BA318
:1004300007D062C0F6FF63C0F7FF0800F55005D093
:1004400062C0E9FF63C0EAFFEF5064C0E9FF65C026
:10045000EAFFEF6E0001622B000E6323642B65231D
:100460006907E2D7120001C46AF000016A516625EB
:10047000666F000E6721676F180E626F040E636F60
:100480006A5111E062C0E9FF63C0EAFFEF5064C047
:10049000E9FF65C0EAFFEF6E642B000E6523622B57
:1004A00063236A07EDD712000001615105E13DD8D1
:1004B000840E006F04011DD0040110AF1CD0000198
:1004C00066510401165D000167510401175904E2E9
:1004D00016C466F017C467F08FDF0001010E606F6D
:1004E00024D8800E006F0401180E066F040E076FEB
:1004F000C80E046F10D00001020E606F0401056B7E
:10050000C80E046F0401080E016F180E026F040E6E
:10051000036FC80E006F6D9812000001606B05D864
:10052000880E006F0401046B12000401080E016FB5
:0A053000100E026F040E036F12009C
:06053A0004011051600BEA
:10054000E842E842E842E842E842000901E01200DD
:100550001151080A39E0010A35E00F0A0AE0030ADE
:1005600001E012000001010E616F0001040E7A6FBC
:1005700012000001010E616F0401130507E1000183
:100580009E0E626F070E636F120E13D0020E135D84
:1005900007E10001B00E626F070E636F200E09D0F5
:1005A000030E135D0AE10001D00E626F070E636F48
:1005B000040E0001666F676B02D00001616B0001E1
:1005C0007B831200F2EF02F00001010E616F000167
:1005D0007C0E626F000E636F00017B930001010EC1
:1005E000666F12000001010E616F12C47CF00401FD
:1005F000125104E10001050E7A6F12000001060E8F
:060600007A6F1CEF00F010
:0A060600080E6D6E6DBAFED7686A2B
:10061000110E696E0001020E7A6F12006850040B11
:1006200006E06950040B03E06D9269946894685089
:10063000010B04E06950010B01E027D86850100B52
:1006400009E06950100B06E0698468986D82A08A01
:100650000300A19A6850200B09E06950200B06E0C6
:1006600070A003D08DEC02F07090689A030E000128
:100670007A5D01E209D06850080B06E06950080B6A
:1006800003E0AEEC01F068961200686A7B0E696EBA
:100690006E6A160E706E68A602D06896FCD76D98CA
:1006A0008DEC02F000017C6B0001030E7A6F1200EA
:1006B0002A0EF66E000EF76E000EF86E00010900AD
:1006C000F550706F0900F550716F03E1706701D04C
:1006D0003DD00900F5506B6F0900F5506C6F0900B3
:1006E000F5506D6F09000900F550E96E0900F550ED
:1006F000EA6E090009000900F5506E6F0900F55017
:100700006F6F09000900F6CF72F0F7CF73F0F8CFE2
:1007100074F06BC0F6FF6CC0F7FF6DC0F8FF00010E
:100720006E5302E16F5307E00900F550EE6E6E075D
:10073000F8E26F07F9D772C0F6FF73C0F7FF74C015
:0E074000F8FF00017007000E715BBFD71200BA
:02074E00C1CF19
:100750007EF095CF7FF094CF80F0946A040E826E85
:100760000F0EC1120F0E956E836A0F0E83140F08C1
:1007700008E180C094FF7FC095FF7EC0C1FF00EFFD
:1007800004F0F00E8C16F00E9516140E6F6E03EC3E
:0E07900003F00EEC03F0ACEC00F0FBD712000F
:02079E00120146
:1007A000000200000008D8040B0000000000000157
:1007B000090220000101008032090400000200004B
:1007C000000007050102400000070581024000000B
:0407D0000403090411
:0C07D40013EE00F023EE00F0F86A059C24
:0C07E00058EC03F0A7EC03F0FDD712006A
:0207EC0000000B
:00000001FF
