:020000040000FA
:060000004AEF05F01200BA
:060008002FEF02F01200D0
:02002A000000D4
:04002C00D9CFE6FF43
:10003000E1CFD9FFFE0EDB50E8B08480E8A08490C9
:100040000F0E8314836EFD0EDB50F00B8310836E56
:10005000010EE66E56EC05F0E5528482010EE66E66
:1000600056EC05F0E5528492010EE66E56EC05F072
:10007000E5520F0E8314836EFD0EDB38F00B8310F8
:10008000836E010EE66E56EC05F0E5528482010E99
:10009000E66E56EC05F0E55284920A0EE66E56ECDA
:1000A00005F0E552E552E7CFD9FF1200D9CFE6FFC0
:1000B000E1CFD9FF070EE126DE52330EDD6E320EA0
:1000C000F36E020EF3CFDBFF280EF36E030EF3CFB9
:1000D000DBFF010EF36E040EF3CFDBFF0C0EF36EAD
:1000E000050EF3CFDBFF060EF36EF3CFDBFFFC0E46
:1000F0009614966E0F0E9514956E8492040EE66E0D
:1001000025EC05F0E552DF6ADFCF10F0040EE76E54
:100110001018E8AE02D0E73402D0E750105C0DE2D0
:10012000300EE66EE66A82DFE552E552030EE66EB9
:1001300025EC05F0E552DF2AE7D7DF6ADFCF10F0C4
:10014000060EE76E1018E8AE02D0E73402D0E75092
:10015000105C1DE2D950010F106EDACF11F0DFCF25
:1001600012F0136A12BE136810501224E96E115077
:100170001320EA6EEF50E66EE66A58DFE552E5526C
:10018000030EE66E25EC05F0E552DF2AD7D7070E01
:10019000E15C02E2E16AE552E16EE552E7CFD9FFA8
:1001A0001200D9CFE6FFE1CFD9FFFE0EDBCFE6FF8D
:1001B000E66A3CDFE552E552E552E7CFD9FF12008F
:1001C000D9CFE6FFE1CFD9FFFE0EDBCFE6FF010E70
:1001D000E66E2CDFE552E552E552E7CFD9FF12007B
:1001E000010EE66EE66A22DFE552E552010EE66E8A
:1001F00025EC05F0E5521200D9CFE6FFE1CFD9FF9B
:10020000FD0EDBCFE9FFFE0EDBCFEAFFEF5013E080
:10021000FD0EDBCFE9FFFE0EDBCFEAFFEF50E66E0F
:10022000010EE66E03DFE552E552FD0EDB2AFE0EFF
:1002300001E3DB2AE5D7E552E7CFD9FF1200D9CF9A
:10024000E6FFE1CFD9FFFD0EDBCFF6FFFE0EDBCFE1
:10025000F7FF0800F55014E0FD0EDBCFF6FFFE0EB1
:10026000DBCFF7FF0800F550E66E010EE66EDEDE2E
:10027000E552E552FD0EDB2AFE0E01E3DB2AE3D751
:10028000E552E7CFD9FF1200D9CFE6FFE1CFD9FF82
:10029000FD0EDBCF7DF0FE0EDBCF7EF000017D5149
:1002A0007E1101E0FBD7E552E7CFD9FF1200D9CF8D
:1002B000E6FFE1CFD9FFFD0EDBCF7FF000017F51DC
:1002C00001E0FCD7E552E7CFD9FF1200D9CFE6FF16
:1002D000E1CFD9FFE65264C0DFFF83CF65F00001B4
:1002E0007B5101E18CD0DFCF10F00C0EE76E1018BF
:1002F000E8AE02D0103403D0E750D880105405E2A5
:100300007C0503E10C0EDF5E06D0DF5004E17C05C6
:1003100002E10C0EDF6E0A0E106E10C00EF0DFCF81
:1003200009F00BEC05F0095030090001666F300E42
:10033000665D02E1200E666FDFCF10F010C009F09D
:100340000A0E0E6E0BEC05F0055030090001676FC8
:100350003A0E686F0A0E106E10C00EF063C009F0FE
:100360000BEC05F0095030090001696F63C009F01A
:100370000A0E0E6E0BEC05F00550300900016A6F95
:100380003A0E6B6F0A0E106E10C00EF062C009F0CC
:100390000BEC05F00950300900016C6F62C009F0E8
:1003A0000A0E0E6E0BEC05F00550300900016D6F62
:1003B0007C0519E1200E6E6F0C0EE76E6419E8AE35
:1003C00002D0E73402D0E750645D03E3500E6F6F54
:1003D00002D0410E6F6F4D0E706F716BC40EE66EE2
:1003E000E0DEE55205D06E6BC60EE66EDADEE55253
:1003F000660EE66E000EE66EFFDEE552E55265C063
:1004000083FFE552E552E7CFD9FF12000001602BD0
:10041000000E6123E80E601902E1030E611914E178
:10042000606B616B622B7F5101E07F073C0E625D68
:100430000BE1626B632B3C0E635D06E1636B642B27
:10044000180E645D01E1646B7D517E1103E07D0750
:10045000000E7E5B6051611101E138DF1200DACFDE
:10046000E4FFE2CFDAFFE9CFE4FFEACFE4FFF6CF23
:10047000E4FFF7CFE4FFF5CFE4FFF3CFE4FFF4CFE1
:10048000E4FFFACFE4FF00EE00F0100EE80403E30F
:10049000EECFE4FFFBD700EE10F0040EE80403E318
:1004A000EECFE4FFFBD7E6529EA00AD09E90D80E76
:1004B000E66ED10EE66EEFEC04F0E552E552A6DFF3
:1004C000E55200EE13F0040EE80403E3E5CFEDFF80
:1004D000FBD700EE0FF0100EE80403E3E5CFEDFFCD
:1004E000FBD7E5CFFAFFE5CFF4FFE5CFF3FFE5CF8C
:1004F000F5FFE5CFF7FFE5CFF6FFE5CFEAFFE5CF64
:10050000E9FFE5CFDAFF1100D9CFE6FFE1CFD9FF50
:10051000030EE126EF0EDF6EDE52FC0EDD6E010EE5
:10052000F36E020EF3CFDBFF836A0F0E83140F0806
:1005300002E00400FAD70C0EE66EE66AA5DEE5528C
:10054000E5520F0E83140F08F0E10F0E83140F080D
:1005500002E10400FAD70C0EE66EE66A95DEE5527B
:10056000E5520F0E83140F08F0E0DF50836EDF9E1C
:10057000DF46040E106E010EDBCFE7FF1050E726BA
:10058000010EE7CFDBFF0F0E83140F08EEE0020E23
:10059000DB508314106E020EDB50105C0BE1010E79
:1005A000DB2A020EDBCFF3FFF39EF346020EF3CFFE
:1005B000DBFFEDD7010EDBCFF6FFF76AF6BEF7687B
:1005C000220EF626090EF7220800F55000D0106E14
:1005D000030EE15C02E2E16AE552E16E1050E55281
:1005E000E7CFD9FF1200D9CFE6FFE1CFD9FFE6521E
:1005F000FD0EDB6AFE0EDB6A69DE86DFDF6EDFCFB3
:1006000010F0FC0EDB50E76E1018E8AE02D010348C
:1006100003D0E750D880105411E30A0EDF02F3CF65
:1006200010F0116A10BE1168D950FD0FE96EFF0E6F
:10063000DA20EA6E1050EE261150ED2247DE64DF1C
:10064000DF6EDFCF10F00A0EE76E1018E8AE02D0B2
:10065000E73402D0E750105C0FE2DFCF10F0116AF0
:1006600010BE1168D950FD0FE96EFF0EDA20EA6E58
:100670001050EE261150ED2229DE46DFDF6E0D0E02
:10068000DF5CB6E1800EE66E8CDDE552470EE66E6D
:10069000090EE66ED4DDE552E552E552E552E7CFAC
:1006A000D9FF12000F0EC16E956E0001646B64C01D
:1006B00063F064C062F064C060F0616B60BF616948
:1006C0007B6B7F6B7FC07DF07E6B7DBF7E69C50ECF
:1006D000E66ECEEC04F0E552200EE66ED10EE66E2C
:1006E000EFEC04F0E552E552D08E9F80F28E56EF8B
:1006F00000F0D9CFE6FFE1CFD9FFE652D3DF800E7D
:10070000E66E4FDDE552320EE66E090EE66E97DDBF
:10071000E552E55200017C6B0001010E7B6F020E79
:10072000E66E640EE66E000EE66E5DDFE552E552A3
:10073000E552800EE66E35DDE552470EE66E090E97
:10074000E66E7DDDE552E552050EE66E630EE66E61
:10075000000EE66E48DFE552E552E552800EE66E89
:1007600020DDE5525C0EE66E090EE66E68DDE552B0
:10077000E552CADEDF6EDFCF10F0020EE76E101812
:10078000E8AE02D0E73402D0E750105C02E2DFCFDF
:100790007CF0800EE66E05DDE552860EE66E090EF3
:1007A000E66E4DDDE552E552C00EE66EFADCE5522E
:1007B000860EE66E090EE66E42DDE552E55286DDF6
:1007C000DF6ADFCF10F0140EE76E1018E8AE02D02B
:1007D000E73402D0E750105C1BE2800EDF10E66EBB
:1007E000E0DCE552DFCFF6FFF76AF6BEF768710E80
:1007F000F626090EF7220800F550E66EE1DCE55218
:10080000A00EE66EE66A40DDE552E552DF2AD9D752
:10081000DF6ADFCF10F0050EE76E1018E8AE02D0E9
:10082000E73402D0E750105C26E2800EE66EB9DCB9
:10083000E552860EE66E090EE66E01DDE552E552E2
:10084000900EE66E010EE66E1FDDE552E552800E5B
:10085000E66EA7DCE552710EE66E090EE66EEFDC81
:10086000E552E552900EE66E010EE66E0DDDE552A4
:10087000E552DF2ACED70400FED7E552E552E7CF96
:04088000D9FF12008A
:0C0884002A0EF66E000EF76E000EF86EE5
:1008900000010900F550856F0900F550866F03E1EE
:1008A000856701D03DD00900F550806F0900F550F3
:1008B000816F0900F550826F09000900F550E96E5B
:1008C0000900F550EA6E090009000900F550836F30
:1008D0000900F550846F09000900F6CF87F0F7CFC3
:1008E00088F0F8CF89F080C0F6FF81C0F7FF82C0A2
:1008F000F8FF0001835302E1845307E00900F5503B
:10090000EE6E8307F8E28407F9D787C0F6FF88C048
:10091000F7FF89C0F8FF00018507000E865BBFD78F
:020920001200C3
:0E092200000704010F0805020E0906030D0C64
:100930000B0A202020202053657420486F757273A5
:100940003A20202020200020202020536574204DB4
:10095000696E757465733A20202020002020303D98
:1009600032346872206F7220313D3132687220203B
:100970000020546865205049433435353020727565
:100980006C657321200020202020202020202020A2
:0B09900020202020202020202020001C
:04099C00D9CFE6FFCA
:1009A000DACFE6FFE1CFD9FFE2CFDAFFFD0EDB5071
:1009B0007E0BCD6EFD0EDBAC02D0CD8E01D0CD9E78
:1009C000CF6ACE6A9E90DBAE02D09D8001D09D9012
:0E09D000CD80E552E5CFDAFFE7CFD9FF120068
:0209DE00D9CF6F
:1009E000E6FFDACFE6FFE1CFD9FFE2CFDAFFE6524A
:1009F000E652FC0EDBCFDEFFDBCFDDFF010EDB506E
:100A0000CF6EDF50CE6EE552E552E552E5CFDAFF0C
:060A1000E7CFD9FF120040
:0A0A1600006A0EAE11EF05F00E6C41
:100A2000001E09AE16EF05F0096C001E3CEC05F047
:100A300009BE20EF05F000AE000C096C056C000C3F
:0A0A400000BE1DEF05F00188FF0C59
:060A4A00FF0EE350156EE3
:100A5000EF0E01D0F30EE76EE72E2CEF05F00C0E33
:100A6000146EE76AE72E32EF05F0142E31EF05F031
:080A7000152E2AEF05F012001B
:080A7800056A080EE76ED89034
:100A8000093605360E50055C02E3056E092AE72E8D
:040A9000F7D7120082
:0C0A940013EE00F023EE00F0F86A019C65
:0C0AA00042EC04F079EC03F0FDD71200EA
:040AAC00FF0EE35006
:100AB000E84E1200000000D000D000D0E82EFAD797
:020AC000120022
:020000040030CA
:0100000003FC
:0100010006F8
:0100020019E4
:010003001FDD
:010005008377
:00000001FF
